S01700004763634170706C69636174696F6E312E737265635B
S113000045C000005DC2000077C200005CC0000073
S11300105AC0000058C0000056C0000054C0000080
S113002052C0000050C000004EC000004CC0000090
S11300304AC0000048C0000046C0000044C00000A0
S113004042C0000040C000003EC000003CC00000B0
S11300503AC0000038C0000036C0000034C00000C0
S113006032C0000030C000002EC000002CC00000D0
S11300702AC0000028C0000026C0000024C00000E0
S113008074C2000020C000001EC0000011241FBE66
S1130090CFEFD0E4DEBFCDBF11E0A0E0B1E0E2E4F9
S11300A0F9E000E00BBF02C007900D92A230B10747
S11300B0D9F723E0A2E0B1E001C01D92A83AB2074B
S11300C0E1F702D03CC49CCF1092150110921401A8
S11300D0AAD216D007D00DD02BD2DCD1789480E0F0
S11300E007D1FDCF84B5816884BD82E085BD239AA4
S11300F0089584B5886284BD82E085BD249A0895FC
S11301000998EAE7F0E08081806880830895ECE74D
S1130110F0E0108290818770982B9083EAE7F0E0FA
S1130120808180648083808186FDFDCF809178000A
S1130130909179000895CF93DF9310921501109256
S1130140140180E0E4DF81E0E2DF82E0E0DF83E0CD
S1130150DEDFC0911201D0E080E0D9DFCC0FDD1FDB
S1130160C85CDE4F99838883C0911201D0E081E09E
S1130170CEDFCC0FDD1FCD5ADE4F99838883C0912B
S11301801201D0E082E0C3DFCC0FDD1FCD52DE4F81
S113019099838883C0911201D0E083E0B8DFCC0F4B
S11301A0DD1FCC5DDE4F9983888320911201822F5D
S11301B090E0880F991FFC01E85CFE4FA081B1819B
S11301C040910E0150910F01609110017091110145
S11301D04A0F5B1F611D711D40930E0150930F0167
S11301E0609310017093110111821082FC01ED5A89
S11301F0FE4FA081B18140910A0150910B016091A1
S11302000C0170910D014A0F5B1F611D711D40931C
S11302100A0150930B0160930C0170930D0111823C
S11302201082FC01ED52FE4FA081B1814091060184
S11302305091070160910801709109014A0F5B1FF9
S1130240611D711D409306015093070160930801DD
S11302507093090111821082FC01EC5DFE4F408114
S113026051818091020190910301A0910401B09108
S11302700501840F951FA11DB11D80930201909368
S11302800301A0930401B09305011182108281E05F
S1130290820F809312018A3041F581E090E09093BF
S11302A01501809314011092120110920E01109204
S11302B00F01109210011092110110920A01109274
S11302C00B0110920C0110920D0110920601109274
S11302D00701109208011092090110920201109274
S11302E003011092040110920501DF91CF9108954A
S11302F08130B9F138F0823009F462C0833009F4F6
S11303008EC0BBC060910E0170910F0180911001ED
S1130310909111012AE030E040E050E0EED23093B9
S1130320690120936801B90180E090E058D229E284
S11303303CE54FE950E487D19B01AC0160E070E2F9
S113034086E395E4E4D120E030E040E85FE37AD14D
S113035060934D0170934E0180934F01909350012F
S11303608CC060910A0170910B0180910C019091F5
S11303700D012AE030E040E050E0BFD23093690143
S113038020936801B90180E090E029D229E23CE59C
S11303904FE950E458D19B01AC0160E070E286E380
S11303A095E4B5D120E030E040E85FE34BD16093C1
S11303B04D0170934E0180934F01909350015DC0A5
S11303C060910601709107018091080190910901E3
S11303D02AE030E040E050E090D23093690120936D
S11303E06801B90180E090E0FAD129E23CE54FE9E7
S11303F050E429D19B01AC0160E070E286E395E40E
S113040086D120E030E040E85FE31CD160934D01E9
S113041070934E0180934F01909350012EC06091D0
S113042002017091030180910401909105012AE079
S113043030E040E050E061D23093690120936801DC
S1130440B90180E090E0CBD129E23CE54FE950E4EA
S1130450FAD09B01AC0160E070E286E395E457D1E9
S113046020E030E040E85FE3EDD060934D0170930D
S11304704E0180934F0190935001109215011092F8
S1130480140160914D0170914E0180914F01909142
S113049050010895529853988BB18C608BB98DB3E9
S11304A083608DBBE9E6F0E080818F6080831092E9
S11304B01701109213011092160110921E01089553
S11304C01F920F920FB60F9211248F9380911301F4
S11304D08F5F80931301809113018A3038F08091EB
S11304E016018F5F80931601109213018F910F9064
S11304F00FBE0F901F9018951F920F920FB60F9278
S113050011248F93809117018F5F8093170180913D
S113051017018A3038F080911E018F5F80931E018D
S1130520109217018F910F900FBE0F901F90189586
S1130530E0E9F0E0808180688083E1E9F0E0808197
S11305408860808380818160808381E080939900CA
S113055084EF809398001092950010929400E1E744
S1130560F0E080818360808308951F920F920FB61C
S11305700F9211240BB60F922F933F934F935F93D7
S11305806F937F938F939F93AF93BF93EF93FF9357
S113059010929500109294008091F3019091F401CF
S11305A001969093F4018093F3018091F30190916B
S11305B0F401889720F1E8E1F1E0808191810196CE
S11305C091838083883E9340B0F082819381019629
S11305D09383828311821082CC9768F08481958101
S11305E001969583848313821282CC9720F0109213
S11305F01D0110921C011092F4011092F3019BDD75
S1130600FF91EF91BF91AF919F918F917F916F91E6
S11306105F914F913F912F910F900BBE0F900FBEA2
S11306200F901F901895809101018093C5008091CF
S113063000018093C40088E18093C1008EE0809320
S1130640C20008955058BB27AA270ED01CC10DD153
S113065030F012D120F031F49F3F11F41EF402C1A6
S11306600EF4E095E7FBF8C0E92F1ED180F3BA172A
S1130670620773078407950718F071F49EF536C175
S11306800EF4E0950B2EBA2FA02D0B01B9019001A9
S11306900C01CA01A0011124FF27591B99F0593FED
S11306A050F4503E68F11A16F040A22F232F342F35
S11306B04427585FF3CF469537952795A795F04083
S11306C05395C9F77EF41F16BA0B620B730B840B98
S11306D0BAF09150A1F0FF0FBB1F661F771F881F50
S11306E0C2F70EC0BA0F621F731F841F48F48795A8
S11306F077956795B795F7959E3F08F0B3CF939597
S1130700880F08F09927EE0F9795879508950CD0D8
S1130710BAC0B2D040F0A9D030F021F45F3F19F054
S11307209BC05111E4C09EC0BFD098F39923C9F374
S11307305523B1F3951B550BBB27AA2762177307E3
S1130740840738F09F5F5F4F220F331F441FAA1F97
S1130750A9F333D00E2E3AF0E0E830D09150504057
S1130760E695001CCAF729D0FE2F27D0660F771F05
S1130770881FBB1F261737074807AB07B0E809F0E7
S1130780BB0B802DBF01FF2793585F4F2AF09E3F7C
S1130790510568F061C0ABC05F3FECF3983EDCF3F9
S11307A0869577956795B795F7959F5FC9F7880FF5
S11307B0911D9695879597F90895E1E0660F771F47
S11307C0881FBB1F621773078407BA0720F0621BD8
S11307D0730B840BBA0BEE1F88F7E0950895E89429
S11307E009C097FB3EF490958095709561957F4F75
S11307F08F4F9F4F9923A9F0F92F96E9BB27939523
S1130800F695879577956795B795F111F8CFFAF432
S1130810BB0F11F460FF1BC06F5F7F4F8F4F9F4F63
S113082016C0882311F096E911C0772321F09EE8C1
S1130830872F762F05C0662371F096E8862F70E027
S113084060E02AF09A95660F771F881FDAF7880F01
S11308509695879597F9089597F99F6780E870E0D2
S113086060E008959FEF80EC089500240A94161622
S1130870170618060906089500240A94121613068A
S1130880140605060895092E0394000C11F4882318
S113089052F0BB0F40F4BF2B11F460FF04C06F5F34
S11308A07F4F8F4F9F4F089557FD9058440F551F0A
S11308B059F05F3F71F04795880F97FB991F61F0DE
S11308C09F3F79F087950895121613061406551F55
S11308D0F2CF4695F1DF08C0161617061806991FC1
S11308E0F1CF86957105610508940895E894BB27B6
S11308F066277727CB0197F90895A1E21A2EAA1B40
S1130900BB1BFD010DC0AA1FBB1FEE1FFF1FA217BB
S1130910B307E407F50720F0A21BB30BE40BF50BB8
S1130920661F771F881F991F1A9469F76095709541
S1130930809590959B01AC01BD01CF010895F89479
S1050940FFCFE3
S105094282002D
S9030000FC
