S01700004763634170706C69636174696F6E312E737265635B
S113000045C0000060C000005EC000005CC000008D
S11300105AC0000058C0000056C0000054C0000080
S113002052C0000050C000004EC000004CC0000090
S11300304AC0000048C0000046C0000044C00000A0
S113004042C0000040C000003EC000003CC00000B0
S11300503AC0000038C0000036C0000034C00000C0
S113006032C0000030C000002EC000002CC00000D0
S11300702AC0000028C0000026C0000024C00000E0
S113008039C1000020C000001EC0000011241FBEA2
S1130090CFEFD0E4DEBFCDBF11E0A0E0B1E0E4EBF0
S11300A0F3E000E00BBF02C007900D92A630B10749
S11300B0D9F721E0A6E0B1E001C01D92A731B20753
S11300C0E1F702D075C19CCF64D1EDD007D00DD03B
S11300D0F3D048E062E882E612D0FBCF84B58168B1
S11300E084BD82E085BD239A0895E0E8F0E0808134
S11300F08168808381E080938100249A089510921E
S1130100110110921001209101013091020121305E
S1130110310509F052C0982F9F7D963431F59BB17B
S113012090669BB9E7E8F3E13197F1F700C000006E
S11301305D9A5E98109202011092010120910801CB
S1130140309109013093110120931001613208F4B8
S113015089C090E297BDE7EAF1E63197F1F700C074
S113016000009F5F9613F6CF62C0823411F082368E
S113017021F58BB180668BB987E893E10197F1F79C
S113018000C000005E9A5D98109202011092010175
S113019080910801909109019093110180931001BD
S11301A0613258F080E287BDE7EAF1E63197F1F772
S11301B000C000008F5F8617B0F380910801909112
S11301C009012091100130911101821B930B50E021
S11301D08417950708F466C080910001882309F408
S11301E061C0662349F067BD87EA91E60197F1F79C
S11301F000C000006150B9F71092000108958BB15E
S113020080668BB9E7E8F3E13197F1F700C00000AD
S11302105E9A5D981092020110920101809108018A
S1130220909109019093110180931001BBCF823406
S1130230A9F5E5CF8BB180668BB987E893E1019787
S1130240F1F700C000005E9A5D98109202011092CE
S1130250010180910801909109019093110180930B
S11302601001ABCF823409F082CFE4CF8BB180662A
S11302708BB9E7E8F3E13197F1F700C000005E9A2B
S11302805D981092020110920101809108019091F1
S11302900901909311018093100184CF823609F0F3
S11302A08CCFE4CF0895EAE7F0E080818760808313
S11302B08081806880830895E0E9F0E0808180682F
S11302C08083E1E9F0E080818860808380818160BF
S11302D0808381E08093990084EF8093980010924A
S11302E09500109294007894E1E7F0E080818360B7
S11302F0808308951F920F920FB60F9211240BB6AC
S11303000F922F938F939F93EF93FF9310929500E7
S1130310109294008091130190911401019690938E
S11303201401809313018091130190911401889713
S113033020F1E6E0F1E08081918101969183808350
S1130340883E9340B0F082819381019693838283A7
S113035011821082CC9768F08481958101969583EF
S1130360848313821282CC9720F010920B01109296
S11303700A011092140110921301FF91EF919F91C1
S11303808F912F910F900BBE0F900FBE0F901F9067
S11303901895809104018093C50080910301809396
S11303A0C40088E18093C1008EE08093C200089568
S10703B0F894FFCFEB
S10903B4010100820000BB
S9030000FC
