:1000000045C00000C5C10000DFC100005CC00000A9
:100010005AC0000058C0000056C0000054C0000084
:1000200052C0000050C000004EC000004CC0000094
:100030004AC0000048C0000046C0000044C00000A4
:1000400042C0000040C000003EC000003CC00000B4
:100050003AC0000038C0000036C0000034C00000C4
:1000600032C0000030C000002EC000002CC00000D4
:100070002AC0000028C0000026C0000024C00000E4
:10008000DCC1000020C000001EC0000011241FBE03
:10009000CFEFD0E4DEBFCDBF11E0A0E0B1E0E8E0FB
:1000A000F8E000E00BBF02C007900D92A230B1074C
:1000B000D9F723E0A2E0B1E001C01D92AD3EB20746
:1000C000E1F702D09FC39CCF10920C0110920B015C
:1000D00003D212D13AD040D093D144D178940F2E8C
:1000E000FFE0EF2EF1E0FF2EF02D0FEA11E080E0AF
:1000F0000AD1E70180E007D16993799389939993B5
:1001000020910201309103014091040150910501B9
:10011000F3D16093020170930301809304019093E3
:100120000501C017D10731F720E030E040E252E48A
:100130004BD260930201709303018093040190936A
:1001400005016CE38CE30FD0D2CF84B5816884BD08
:1001500082E085BD239A089584B5886284BD82E0DB
:1001600085BD249A0895CF92DF92EF92FF92CF93AC
:10017000DF93D82FC62F80E0C6D09B01AC0166E686
:1001800076E68EE391E4B7D16B017C012DEC3CEC7B
:100190004CEC5DE315D218165CF02DEC3CEC4CE415
:1001A0005EEBC701B6012AD3882314F0D8BDC7BDC2
:1001B0002DEC3CEC4CEC5DE3C701B6011FD31816E7
:1001C0006CF420E030E040E85FE3C701B601F8D10D
:1001D000181624F089E18D0F88BDC8BD20E030E0FD
:1001E00040E85FE3C701B60109D318166CF420E0BC
:1001F00030E040E050E4C701B601E2D1181624F027
:1002000084E68D0F88BDC7BD20E030E040E050E4BB
:10021000C701B601F3D218166CF420E030E040E4D8
:1002200050E4C701B601CCD1181624F088E28D0F36
:1002300088BDC7BD20E030E040E450E4C701B6010E
:10024000DDD2181624F484E68D0F88BDC7BD2DECD1
:100250003CEC4CE45EEBC701B601B2D188236CF4F0
:1002600020E030E040E85FEBC701B601C7D2882349
:1002700024F089E18C0F87BDD8BD20E030E040E854
:100280005FEBC701B6019CD188236CF420E030E01D
:1002900040E050ECC701B601B1D2882324F082E3DC
:1002A0008C0F87BDD8BD20E030E040E050ECC701A6
:1002B000B60186D188236CF420E030E040E450ECB5
:1002C000C701B6019BD2882324F080E58C0F87BD3F
:1002D000D8BD20E030E040E450ECC701B60170D159
:1002E00088231CF4C858C7BDD8BDDF91CF91FF90BB
:1002F000EF90DF90CF9008950998EAE7F0E08081D1
:10030000806880830895ECE7F0E010829081877028
:10031000982B9083EAE7F0E080818064808380817D
:1003200086FDFDCFE8E7F0E08081918160817181F9
:100330006B5F7F4F80E090E0AFD19B01AC0160E04C
:1003400070E286E395E440D120E030E040E85FE3EE
:10035000D2D06093E4017093E5018093E60190931D
:10036000E7010895529853988BB18C608BB98DB387
:1003700083608DBBE9E6F0E080818F60808310921E
:100380000E011092060110920D011092B501089510
:100390001F920F920FB60F9211248F938091060136
:1003A0008F5F80930601809106018A3038F080913A
:1003B0000D018F5F80930D01109206018F910F90B8
:1003C0000FBE0F901F9018951F920F920FB60F92AD
:1003D00011248F9380910E018F5F80930E01809185
:1003E0000E018A3038F08091B5018F5F8093B5019E
:1003F00010920E018F910F900FBE0F901F901895C5
:10040000E0E9F0E0808180688083E1E9F0E08081CC
:100410008860808380818160808381E080939900FF
:1004200084EF809398001092950010929400E1E779
:10043000F0E080818360808308951F920F920FB651
:100440000F9211240BB60F922F938F939F93EF93DC
:10045000FF93109295001092940080913802909131
:1004600039020196909339028093380280913802C4
:1004700090913902889720F1EFEAF1E08081918133
:10048000019691838083883E9340B0F0828193816E
:1004900001969383828311821082CC9768F08481C5
:1004A000958101969583848313821282CC9720F0E4
:1004B0001092B4011092B3011092390210923802D6
:1004C000FF91EF919F918F912F910F900BBE0F9005
:1004D0000FBE0F901F901895809101018093C50069
:1004E000809100018093C40088E18093C1008EE078
:1004F0008093C20008955058BB27AA270ED044C14C
:1005000035D130F03AD120F031F49F3F11F41EF490
:100510002AC10EF4E095E7FB20C1E92F46D180F314
:10052000BA17620773078407950718F071F49EF5F0
:100530005EC10EF4E0950B2EBA2FA02D0B01B90170
:1005400090010C01CA01A0011124FF27591B99F049
:10055000593F50F4503E68F11A16F040A22F232F55
:10056000342F4427585FF3CF469537952795A795A5
:10057000F0405395C9F77EF41F16BA0B620B730B4C
:10058000840BBAF09150A1F0FF0FBB1F661F771FBD
:10059000881FC2F70EC0BA0F621F731F841F48F472
:1005A000879577956795B795F7959E3F08F0B3CFF8
:1005B0009395880F08F09927EE0F979587950895E2
:1005C000A8D008F481E008950CD0DEC0D6D040F069
:1005D000CDD030F021F45F3F19F0BFC0511108C1F8
:1005E000C2C0E3D098F39923C9F35523B1F3951B07
:1005F000550BBB27AA2762177307840738F09F5F44
:100600005F4F220F331F441FAA1FA9F333D00E2EB2
:100610003AF0E0E830D091505040E695001CCAF71F
:1006200029D0FE2F27D0660F771F881FBB1F2617E4
:1006300037074807AB07B0E809F0BB0B802DBF01B7
:10064000FF2793585F4F2AF09E3F510568F085C001
:10065000CFC05F3FECF3983EDCF3869577956795C6
:10066000B795F7959F5FC9F7880F911D9695879568
:1006700097F90895E1E0660F771F881FBB1F621787
:1006800073078407BA0720F0621B730B840BBA0B45
:10069000EE1F88F7E0950895E89409C097FB3EF4B3
:1006A00090958095709561957F4F8F4F9F4F9923BF
:1006B000A9F0F92F96E9BB279395F695879577953D
:1006C0006795B795F111F8CFFAF4BB0F11F460FFFD
:1006D0001BC06F5F7F4F8F4F9F4F16C0882311F055
:1006E00096E911C0772321F09EE8872F762F05C069
:1006F000662371F096E8862F70E060E02AF09A9504
:10070000660F771F881FDAF7880F9695879597F9F8
:100710000895990F0008550FAA0BE0E8FEEF161692
:100720001706E807F907C0F012161306E407F507E5
:1007300098F0621B730B840B950B39F40A2661F059
:10074000232B242B252B21F408950A2609F4A140FC
:10075000A6958FEF811D811D089597F99F6780E809
:1007600070E060E008959FEF80EC089500240A9403
:100770001616170618060906089500240A9412167C
:100780001306140605060895092E0394000C11F4AF
:10079000882352F0BB0F40F4BF2B11F460FF04C05C
:1007A0006F5F7F4F8F4F9F4F089557FD9058440FB5
:1007B000551F59F05F3F71F04795880F97FB991FC0
:1007C00061F09F3F79F0879508951216130614067D
:1007D000551FF2CF4695F1DF08C01616170618060A
:1007E000991FF1CF86957105610508940895E894E5
:1007F000BB2766277727CB0197F908958ADF08F48E
:080800008FEF0895F894FFCF7B
:0208080082006C
:00000001FF
