:1000000045C000007BC1000095C100005CC000003D
:100010005AC0000058C0000056C0000054C0000084
:1000200052C0000050C000004EC000004CC0000094
:100030004AC0000048C0000046C0000044C00000A4
:1000400042C0000040C000003EC000003CC00000B4
:100050003AC0000038C0000036C0000034C00000C4
:1000600032C0000030C000002EC000002CC00000D4
:100070002AC0000028C0000026C0000024C00000E4
:1000800092C1000020C000001EC0000011241FBE4D
:10009000CFEFD0E4DEBFCDBF11E0A0E0B1E0E6E6F7
:1000A000F4E000E00BBF02C007900D92A630B1074C
:1000B000D9F721E0A6E0B1E001C01D92AD31B20751
:1000C000E1F702D0CEC19CCFBDD1F9D016D01CD063
:1000D0004DD1FED0789480910F018330E0F345E05C
:1000E00068EC82E618D02FEF8EE994E22150804030
:1000F0009040E1F700C00000EECF84B5816884BD78
:1001000082E085BD239A089584B5886284BD82E02B
:1001100085BD249A0895109211011092100120912A
:100120000101309102012130310509F052C0982FB0
:100130009F7D963431F59BB190639BB9E7EBFBE073
:100140003197F1F700C000005C9A5D9810920201AF
:100150001092010120910B0130910C01309311019B
:1001600020931001613208F489C090E298BDE7E95C
:10017000FAE33197F1F700C000009F5F9613F6CFC6
:1001800062C0823411F0823621F58BB180638BB965
:1001900087EB9BE00197F1F700C000005D9A5C9847
:1001A000109202011092010180910B0190910C01BB
:1001B0009093110180931001613258F080E288BD64
:1001C000E7E9FAE33197F1F700C000008F5F861787
:1001D000B0F380910B0190910C01209110013091AE
:1001E0001101821B930B50E08417950708F466C039
:1001F00080910001882309F461C0662349F068BD3D
:1002000087E99AE30197F1F700C000006150B9F760
:100210001092000108958BB180638BB9E7EBFBE08E
:100220003197F1F700C000005D9A5C9810920201CE
:100230001092010180910B0190910C01909311019A
:1002400080931001BBCF8234A9F5E5CF8BB18063D9
:100250008BB987EB9BE00197F1F700C000005D9A36
:100260005C98109202011092010180910B01909113
:100270000C019093110180931001ABCF823409F0EF
:1002800082CFE4CF8BB180638BB9E7EBFBE0319792
:10029000F1F700C000005D9A5C9810920201109284
:1002A000010180910B0190910C01909311018093B9
:1002B000100184CF823609F08CCFE4CF0895EAE7AD
:1002C000F0E08081876080838081806880830895EA
:1002D000529853988BB18C608BB98DB383608DBB72
:1002E000E9E6F0E080818F6080831092080110922F
:1002F00006011092070110920F0108951F920F92AC
:100300000FB60F9211248F93809106018F5F809317
:100310000601809106018A3038F0809107018F5FD5
:1003200080930701109206018F910F900FBE0F90DE
:100330001F9018951F920F920FB60F9211248F9352
:10034000809108018F5F80930801809108018A30B5
:1003500038F080910F018F5F80930F011092080198
:100360008F910F900FBE0F901F901895E0E9F0E06D
:10037000808180688083E1E9F0E08081886080830B
:1003800080818160808381E08093990084EF8093F5
:1003900098001092950010929400E1E7F0E08081BF
:1003A0008360808308951F920F920FB60F921124DD
:1003B0000BB60F922F938F939F93EF93FF9310920F
:1003C0009500109294008091190190911A01019664
:1003D00090931A01809319018091190190911A014B
:1003E000889720F1E9E0F1E0808191810196918385
:1003F0008083883E9340B0F08281938101969383FD
:10040000828311821082CC9768F084819581019655
:100410009583848313821282CC9720F010920E0170
:1004200010920D0110921A0110921901FF91EF9193
:100430009F918F912F910F900BBE0F900FBE0F9039
:100440001F901895809104018093C500809103014D
:100450008093C40088E18093C1008EE08093C20045
:060460000895F894FFCF9F
:060466000101008200000C
:00000001FF
