:1000000045C0000060C000005EC000005CC0000091
:100010005AC0000058C0000056C0000054C0000084
:1000200052C0000050C000004EC000004CC0000094
:100030004AC0000048C0000046C0000044C00000A4
:1000400042C0000040C000003EC000003CC00000B4
:100050003AC0000038C0000036C0000034C00000C4
:1000600032C0000030C000002EC000002CC00000D4
:100070002AC0000028C0000026C0000024C00000E4
:100080000BC1000020C000001EC0000011241FBED4
:10009000CFEFD0E4DEBFCDBF11E0A0E0B1E0EAE3F6
:1000A000F3E000E00BBF02C007900D92A230B10751
:1000B000D9F721E0A2E0B1E001C01D92AF30B20754
:1000C000E1F7ABD038C19CCF84B5816884BD82E0B4
:1000D00085BD239A0895809101018093C500809188
:1000E00000018093C40088E18093C1008EE080937A
:1000F000C2000895E0ECF0E080818823ECF7809165
:10010000C600089580910A0190910B01892BE9F0B6
:1001100010920D01EFDF80930D018B7F823411F07F
:100120008236B1F410920E01E5DF80930E01882330
:1001300091F010920C01DEDF80930C0121E090E041
:10014000811101C020E0822F089580E090E00895A1
:1001500080E090E0089580E090E008958F7D8634FF
:1001600079F42DC080E287BDE7EAF1E63197F1F737
:1001700000C000008F5F90910E018917A0F30895D1
:10018000823461F58BB180668BB987E893E1019782
:10019000F1F700C000005E9A5D9880910E018132F7
:1001A000E8F080E287BDE7EAF1E63197F1F700C0B9
:1001B00000008F5F90910E018917A0F308958BB115
:1001C00080668BB987E893E10197F1F700C00000E2
:1001D0005D9A5E9880910E01813220F60895E0E9E3
:1001E000F0E0808180688083E1E9F0E080818860D0
:1001F000808380818160808381E08093990084EF97
:100200008093980010929500109294007894E1E702
:10021000F0E080818360808308955DDF55DFDFDF5C
:1002200081E090E090930B0180930A0110920C0101
:100230005E9A00E010E0C2E0D1E0EE24E394F12CFD
:1002400061DF892B69F040910C0160910E01809172
:100250000D0184DF0A811B8110920B0110920A01AB
:100260002A813B81201B310B80910C0190E02817E3
:10027000390730F380910E01882349F087BDE7EA02
:10028000F1E63197F1F700C000008150B9F7F09224
:100290000B01E0920A01D4CF1F920F920FB60F927A
:1002A00011240BB60F922F938F939F93EF93FF938D
:1002B000109295001092940080910801909109018C
:1002C0000196909309018093080180910801909113
:1002D0000901889720F1E2E0F1E0808191810196A7
:1002E00091838083883E9340B0F082819381019610
:1002F0009383828311821082CC9768F084819581E8
:1003000001969583848313821282CC9720F01092F9
:100310000701109206011092090110920801FF9145
:10032000EF919F918F912F910F900BBE0F900FBE69
:0A0330000F901F901895F894FFCF6E
:02033A0082003F
:00000001FF
