:1000000045C0000060C000005EC000005CC0000091
:100010005AC0000058C0000056C0000054C0000084
:1000200052C0000050C000004EC000004CC0000094
:100030004AC0000048C0000046C0000044C00000A4
:1000400042C0000040C000003EC000003CC00000B4
:100050003AC0000038C0000036C0000034C00000C4
:1000600032C0000030C000002EC000002CC00000D4
:100070002AC0000028C0000026C0000024C00000E4
:10008000D5C0000020C000001EC0000011241FBE0B
:10009000CFEFD0E4DEBFCDBF11E0A0E0B1E0E0EEF5
:1000A000F2E000E00BBF02C007900D92A030B10754
:1000B000D9F721E0A0E0B1E001C01D92AF37B2074F
:1000C000E1F76BD00BC19CCF84B5816884BD82E021
:1000D00085BD239A08958F7D863479F430C080E2FF
:1000E00087BDE7EAF1E63197F1F700C000008F5FC6
:1000F000909178018917A0F30895823479F58BB136
:1001000080668BB987E893E10197F1F700C00000A2
:100110005E9A5D9880917801813200F180E287BD1E
:100120009FEBE4EDF1E09150E040F040E1F700C0DA
:1001300000008F5F90917801891788F308958BB143
:1001400080668BB987E893E10197F1F700C0000062
:100150005D9A5E9880917801813208F60895E0E911
:10016000F0E0808180688083E1E9F0E08081886050
:10017000808380818160808381E08093990084EF17
:100180008093980010929500109294007894E1E783
:10019000F0E0808183608083089597D095DFDFDF72
:1001A000109277011092760181E090E090930D011A
:1001B00080930C0180EA8093780101E010E0C0E0B8
:1001C000D1E002C000E010E080910C0190910D019F
:1001D000019779F445E06091780182E67CDF8A81BD
:1001E0009B81909377018093760110920D0110927C
:1001F0000C018A819B812091760130917701821BCD
:10020000930B059708F301151105F1F28091780120
:100210008823C1F287BDE7EAF1E63197F1F700C024
:1002200000008150B9F700E010E0CECF1F920F928E
:100230000FB60F9211240BB60F922F938F939F93AB
:10024000EF93FF9310929500109294008091060115
:100250009091070101969093070180930601809188
:10026000060190910701889720F1E0E0F1E080819C
:100270009181019691838083883E9340B0F0828182
:10028000938101969383828311821082CC9768F0C8
:100290008481958101969583848313821282CC9701
:1002A00020F01092050110920401109207011092A3
:1002B0000601FF91EF919F918F912F910F900BBEAF
:1002C0000F900FBE0F901F901895EAE7F0E0808125
:1002D000876080838081806880830895F894FFCF51
:00000001FF
