S01700004763634170706C69636174696F6E312E737265635B
S113000045C00000B7C00000D1C000005CC00000C3
S11300105AC0000058C0000056C0000054C0000080
S113002052C0000050C000004EC000004CC0000090
S11300304AC0000048C0000046C0000044C00000A0
S113004042C0000040C000003EC000003CC00000B0
S11300503AC0000038C0000036C0000034C00000C0
S113006032C0000030C000002EC000002CC00000D0
S11300702AC0000028C0000026C0000024C00000E0
S1130080CEC0000020C000001EC0000011241FBE0E
S1130090CFEFD0E4DEBFCDBF11E0A0E0B1E0EEEDE4
S11300A0F2E000E00BBF02C007900D92A230B1074E
S11300B0D9F721E0A2E0B1E001C01D92A938B2074E
S11300C0E1F702D00AC19CCF81E680938401F6D087
S11300D024D015D01BD086D037D078940F2EF5E0DD
S11300E0EF2EF1E0FF2EF02D0DE711E0E70181E0A6
S11300F01BD089939993C017D107C9F7F7CF84B55B
S1130100816884BD82E085BD239A089584B58862A0
S113011084BD82E085BD249A08950998EAE7F0E059
S1130120808180688083089581E080937C00EAE781
S1130130F0E0808180648083808186FDFDCF8091A2
S11301407800909179000895529853988BB18C60FF
S11301508BB98DB383608DBBE9E6F0E080818F605D
S113016080831092040110920201109203011092F4
S1130170830108951F920F920FB60F9211248F934B
S1130180809102018F5F80930201809102018A3085
S113019038F0809103018F5F809303011092020174
S11301A08F910F900FBE0F901F9018951F920F9272
S11301B00FB60F9211248F93809104018F5F809367
S11301C00401809104018A3038F0809183018F5FAB
S11301D080938301109204018F910F900FBE0F90B2
S11301E01F901895E0E9F0E0808180688083E1E960
S11301F0F0E080818860808380818160808381E0F9
S11302008093990084EF8093980010929500109247
S11302109400E1E7F0E080818360808308951F9279
S11302200F920FB60F9211240BB60F922F938F9348
S11302309F93EF93FF9310929500109294008091F6
S113024085019091860101969093860180938501A2
S11302508091850190918601889720F1EDE7F1E086
S113026080819181019691838083883E9340B0F090
S11302708281938101969383828311821082CC9729
S113028068F0848195810196958384831382128218
S1130290CC9720F010928201109281011092860175
S11302A010928501FF91EF919F918F912F910F9063
S11302B00BBE0F900FBE0F901F90189580910101F7
S11302C08093C500809100018093C40088E18093ED
S11102D0C1008EE08093C2000895F894FFCF21
S10502DE820098
S9030000FC
