:1000000045C0000060C000005EC000005CC0000091
:100010005AC0000058C0000056C0000054C0000084
:1000200052C0000050C000004EC000004CC0000094
:100030004AC0000048C0000046C0000044C00000A4
:1000400042C0000040C000003EC000003CC00000B4
:100050003AC0000038C0000036C0000034C00000C4
:1000600032C0000030C000002EC000002CC00000D4
:100070002AC0000028C0000026C0000024C00000E4
:1000800022C0000020C000001EC0000011241FBEBE
:10009000CFEFD0E4DEBFCDBF11E0A0E0B1E0E0E300
:1000A000F1E000E00BBF02C007900D92A230B10753
:1000B000D9F721E0A2E0B1E001C01D92A330B20760
:1000C000E1F728D033C09CCF84B5816884BD82E03D
:1000D00085BD239A0895809101018093C500809188
:1000E00000018093C40088E18093C1008EE080937A
:1000F000C2000895E0ECF0E0908195FFFDCF809381
:10010000C6000895E0ECF0E080818823ECF7809150
:10011000C6000895E0DFD8DFF5DF80930201882371
:10012000D9F387BD80910201E5DFF6CFF894FFCFC8
:0201300082004B
:00000001FF
