:1000000045C000005AC2000074C200005CC000007D
:100010005AC0000058C0000056C0000054C0000084
:1000200052C0000050C000004EC000004CC0000094
:100030004AC0000048C0000046C0000044C00000A4
:1000400042C0000040C000003EC000003CC00000B4
:100050003AC0000038C0000036C0000034C00000C4
:1000600032C0000030C000002EC000002CC00000D4
:100070002AC0000028C0000026C0000024C00000E4
:1000800071C2000020C000001EC0000011241FBE6D
:10009000CFEFD0E4DEBFCDBF11E0A0E0B1E0E4E9F6
:1000A000F9E000E00BBF02C007900D92A230B1074B
:1000B000D9F723E0A2E0B1E001C01D92A63AB20751
:1000C000E1F702D065C49CCFABD21ED00FD015D0C3
:1000D0002CD2DDD1789480E00CD160931E01709316
:1000E0001F018093200190932101F5CF84B5816891
:1000F00084BD82E085BD239A089584B5886284BD5D
:1001000082E085BD249A08950998EAE7F0E08081AD
:10011000806880830895ECE7F0E01082908187701A
:10012000982B9083EAE7F0E080818064808380816F
:1001300086FDFDCF609178007091790080E090E0BD
:1001400077C30895CF93DF9380E0E5DF81E0E3DFBD
:1001500082E0E1DF83E0DFDFC0911201D0E080E0E8
:10016000DADFCC0FDD1FCA5CDE4F36D379836883BC
:10017000C0911201D0E081E0CEDFCC0FDD1FCF5A5D
:10018000DE4F2AD379836883C0911201D0E082E0E8
:10019000C2DFCC0FDD1FCF52DE4F1ED379836883C1
:1001A000C0911201D0E083E0B6DFCC0FDD1FCE5D41
:1001B000DE4F12D37983688320911201822F90E061
:1001C000880F991FFC01EA5CFE4FA081B18140912C
:1001D0000E0150910F0160911001709111014A0FB1
:1001E0005B1F611D711D40930E0150930F016093C1
:1001F00010017093110111821082FC01EF5AFE4F21
:10020000A081B18140910A0150910B0160910C01D4
:1002100070910D014A0F5B1F611D711D40930A0112
:1002200050930B0160930C0170930D0111821082A9
:10023000FC01EF52FE4FA081B18140910601509127
:10024000070160910801709109014A0F5B1F611D50
:10025000711D40930601509307016093080170934C
:10026000090111821082FC01EE5DFE4F4081518137
:100270008091020190910301A0910401B0910501C8
:10028000840F951FA11DB11D80930201909303015E
:10029000A0930401B0930501118210822F5F2A30D0
:1002A00019F02093120122C01092120110920E0137
:1002B00010920F01109210011092110110920A0178
:1002C00010920B0110920C0110920D011092060178
:1002D0001092070110920801109209011092020178
:1002E000109203011092040110920501DF91CF9149
:1002F00008958130B9F138F0823009F462C083305A
:1003000009F48EC0BBC060910E0170910F01809105
:100310001001909111012AE030E040E050E016D346
:100320003093670120936601B90180E090E080D2AC
:1003300029E23CE54FE950E483D19B01AC0160E048
:1003400070E286E395E4E0D120E030E040E85FE34E
:1003500076D160934B0170934C0180934D01909343
:100360004E018CC060910A0170910B0180910C01CB
:1003700090910D012AE030E040E050E0E7D2309368
:10038000670120936601B90180E090E051D229E233
:100390003CE54FE950E454D19B01AC0160E070E2D0
:1003A00086E395E4B1D120E030E040E85FE347D157
:1003B00060934B0170934C0180934D0190934E01DB
:1003C0005DC06091060170910701809108019091D4
:1003D00009012AE030E040E050E0B8D230936701F4
:1003E00020936601B90180E090E022D229E23CE549
:1003F0004FE950E425D19B01AC0160E070E286E357
:1004000095E482D120E030E040E85FE318D16093CA
:100410004B0170934C0180934D0190934E012EC07F
:100420006091020170910301809104019091050196
:100430002AE030E040E050E089D230936701209319
:100440006601B90180E090E0F3D129E23CE54FE993
:1004500050E4F6D09B01AC0160E070E286E395E4E5
:1004600053D120E030E040E85FE3E9D060934B01F6
:1004700070934C0180934D0190934E0160914B011C
:1004800070914C0180914D0190914E0108955298C8
:1004900053988BB18C608BB98DB383608DBBE9E6CB
:1004A000F0E080818F60808310921501109213011B
:1004B0001092140110921C0108951F920F920FB612
:1004C0000F9211248F93809113018F5F80931301FA
:1004D000809113018A3038F0809114018F5F8093EE
:1004E0001401109213018F910F900FBE0F901F9067
:1004F00018951F920F920FB60F9211248F9380912F
:1005000015018F5F80931501809115018A3038F0B5
:1005100080911C018F5F80931C01109215018F91B7
:100520000F900FBE0F901F901895E0E9F0E08081CA
:1005300080688083E1E9F0E0808188608083808149
:100540008160808381E08093990084EF809398009C
:100550001092950010929400E1E7F0E080818360B2
:10056000808308951F920F920FB60F9211240BB63D
:100570000F922F933F934F935F936F937F938F933C
:100580009F93AF93BF93EF93FF93109295001092B8
:1005900094008091F1019091F20101969093F20103
:1005A0008093F1018091F1019091F201889720F1FF
:1005B000E6E1F1E080819181019691838083883E1C
:1005C0009340B0F08281938101969383828311825C
:1005D0001082CC9768F084819581019695838483FD
:1005E00013821282CC9720F010921B0110921A01F4
:1005F0001092F2011092F101A5DDFF91EF91BF91F0
:10060000AF919F918F917F916F915F914F913F91AA
:100610002F910F900BBE0F900FBE0F901F9018954B
:10062000809101018093C500809100018093C400F6
:1006300088E18093C1008EE08093C20008955058F5
:10064000BB27AA270ED048C139D130F03ED120F0C7
:1006500031F49F3F11F41EF42EC10EF4E095E7FB38
:1006600024C1E92F4AD180F3BA17620773078407C0
:10067000950718F071F49EF562C10EF4E0950B2E0B
:10068000BA2FA02D0B01B90190010C01CA01A001E4
:100690001124FF27591B99F0593F50F4503E68F13F
:1006A0001A16F040A22F232F342F4427585FF3CF80
:1006B000469537952795A795F0405395C9F77EF451
:1006C0001F16BA0B620B730B840BBAF09150A1F09A
:1006D000FF0FBB1F661F771F881FC2F70EC0BA0F20
:1006E000621F731F841F48F4879577956795B795A8
:1006F000F7959E3F08F0B3CF9395880F08F09927A0
:10070000EE0F9795879508950CD0E6C0DED040F0A7
:10071000D5D030F021F45F3F19F0C7C0511110C19E
:10072000CAC0EBD098F39923C9F35523B1F3951BB5
:10073000550BBB27AA2762177307840738F09F5F02
:100740005F4F220F331F441FAA1FA9F333D00E2E71
:100750003AF0E0E830D091505040E695001CCAF7DE
:1007600029D0FE2F27D0660F771F881FBB1F2617A3
:1007700037074807AB07B0E809F0BB0B802DBF0176
:10078000FF2793585F4F2AF09E3F510568F08DC0B8
:10079000D7C05F3FECF3983EDCF38695779567957D
:1007A000B795F7959F5FC9F7880F911D9695879527
:1007B00097F90895E1E0660F771F881FBB1F621746
:1007C00073078407BA0720F0621B730B840BBA0B04
:1007D000EE1F88F7E095089598D088F09F5790F025
:1007E000B92F9927B751A0F0D1F0660F771F881F56
:1007F000991F1AF0BA95C9F712C0B13081F09FD095
:10080000B1E008959CC0672F782F8827B85F39F032
:10081000B93FCCF3869577956795B395D9F73EF4B4
:1008200090958095709561957F4F8F4F9F4F08955C
:10083000E89409C097FB3EF490958095709561957A
:100840007F4F8F4F9F4F9923A9F0F92F96E9BB2730
:100850009395F695879577956795B795F111F8CFAC
:10086000FAF4BB0F11F460FF1BC06F5F7F4F8F4F17
:100870009F4F16C0882311F096E911C0772321F00D
:100880009EE8872F762F05C0662371F096E8862FA5
:1008900070E060E02AF09A95660F771F881FDAF7FC
:1008A000880F9695879597F9089597F99F6780E83F
:1008B00070E060E008959FEF80EC089500240A94B2
:1008C0001616170618060906089500240A9412162B
:1008D0001306140605060895092E0394000C11F45E
:1008E000882352F0BB0F40F4BF2B11F460FF04C00B
:1008F0006F5F7F4F8F4F9F4F089557FD9058440F64
:10090000551F59F05F3F71F04795880F97FB991F6E
:1009100061F09F3F79F0879508951216130614062B
:10092000551FF2CF4695F1DF08C0161617061806B8
:10093000991FF1CF86957105610508940895E89493
:10094000BB2766277727CB0197F90895A1E21A2ED6
:10095000AA1BBB1BFD010DC0AA1FBB1FEE1FFF1F63
:10096000A217B307E407F50720F0A21BB30BE40BB3
:10097000F50B661F771F881F991F1A9469F76095FA
:100980007095809590959B01AC01BD01CF010895B4
:04099000F894FFCF09
:020994008200DF
:00000001FF
