S01700004763634170706C69636174696F6E312E737265635B
S113000045C0000060C000005EC000005CC000008D
S11300105AC0000058C0000056C0000054C0000080
S113002052C0000050C000004EC000004CC0000090
S11300304AC0000048C0000046C0000044C00000A0
S113004042C0000040C000003EC000003CC00000B0
S11300503AC0000038C0000036C0000034C00000C0
S113006032C0000030C000002EC000002CC00000D0
S11300702AC0000028C0000026C0000024C00000E0
S1130080D0C0000020C000001EC0000011241FBE0C
S1130090CFEFD0E4DEBFCDBF11E0A0E0B1E0E2EEEF
S11300A0F2E000E00BBF02C007900D92A230B1074E
S11300B0D9F721E0A2E0B1E001C01D92A331B2075B
S11300C0E1F702D00CC19CCFFBD084D02ED08BD0D2
S11300D033D0C1E0D0E040E050E021E030E002E085
S11300E011E0E12CF12C2130310549F445E060EABE
S11300F082E62CD0F801428153812E2D3F2DF80148
S113010082819381841B950B059768F3209759F39B
S113011080EA87BDE7EAF1E63197F1F700C0000015
S11301208150B9F7CE2DDF2DDECF84B5816884BD33
S113013082E085BD239A0895E0E8F0E0808181683B
S1130140808381E080938100249A08958F7D863492
S113015079F430C080E287BDE7EAF1E63197F1F740
S113016000C000008F5F90910E018917A0F30895DD
S1130170823479F58BB180668BB987E893E1019776
S1130180F1F700C000005E9A5D9880910E01813203
S113019000F180E287BD9FEBE4EDF1E09150E04097
S11301A0F040E1F700C000008F5F90910E018917C5
S11301B088F308958BB180668BB987E893E1019742
S11301C0F1F700C000005D9A5E9880910E018132C3
S11301D008F60895EAE7F0E08081876080838081F3
S11301E0806880830895E0E9F0E0808180688083FE
S11301F0E1E9F0E080818860808380818160808390
S113020081E08093990084EF809398001092950088
S1130210109294007894E1E7F0E080818360808319
S113022008951F920F920FB60F9211240BB60F92DE
S11302302F938F939F93EF93FF93109295001092B7
S1130240940080910F0190911001019690931001F8
S113025080930F0180910F0190911001889720F1F4
S1130260E2E0F1E080819181019691838083883E70
S11302709340B0F0828193810196938382831182AB
S11302801082CC9768F0848195810196958384834C
S113029013821282CC9720F010920701109206016B
S11302A01092100110920F01FF91EF919F918F9185
S11302B02F910F900BBE0F900FBE0F901F901895AB
S11302C0809101018093C500809100018093C40056
S11302D088E18093C1008EE08093C2000895F89471
S10502E0FFCF4A
S10502E2820094
S9030000FC
