:1000000086C000000EC1000028C100009DC0000095
:100010009BC0000099C0000097C0000095C0000080
:1000200093C0000091C000008FC000008DC0000090
:100030008BC0000089C0000087C0000085C00000A0
:1000400083C0000081C000007FC000007DC00000B0
:100050007BC0000079C0000077C0000075C00000C0
:1000600073C0000071C000006FC000006DC00000D0
:100070006BC0000069C0000067C0000065C00000E0
:1000800025C1000061C000005FC000000763423668
:10009000B79BD8A71A39685618AEBAAB558C1D3C19
:1000A000B7CC5763BD6DEDFD753EF6177231BF00DD
:1000B0000000803F08000000BE922449123EABAA17
:1000C000AA2ABECDCCCC4C3E00000080BEABAAAA72
:1000D000AA3E00000000BF000000803F00000000BA
:1000E00000084178D3BB4387D1133D190E3CC3BDF3
:1000F0004282AD2B3E68EC8276BED98FE1A93E4CA0
:1001000080EFFFBE01C4FF7F3F000000000011240C
:100110001FBECFEFD0E4DEBFCDBF11E0A0E0B1E065
:10012000E2EDF9E000E00BBF02C007900D92A230B3
:10013000B107D9F723E0A2E0B1E001C01D92A437D6
:10014000B207E1F702D043C45BCF109204011092D2
:1001500003010BD126D017D01DD09BD04CD0789462
:100160000F2EF7E0EF2EF1E0FF2EF02D07EA11E061
:10017000E70180E01DD06993799389939993C01723
:10018000D107B9F7F5CF84B5816884BD82E085BD1C
:10019000239A089584B5886284BD82E085BD249A3F
:1001A00008950998EAE7F0E08081806880830895E7
:1001B000ECE7F0E0108290818770982B9083EAE75B
:1001C000F0E0808180648083808186FDFDCF609136
:1001D0007800709179006F5F7F4F80E090E0A1D14F
:1001E0002DEC3CEC4CE85FEB8DD220E030E042E8B7
:1001F00052E425C20895529853988BB18C608BB904
:100200008DB383608DBBE9E6F0E080818F608083F1
:100210001092060110920201109205011092AD0198
:1002200008951F920F920FB60F9211248F93809111
:1002300002018F5F80930201809102018A3038F0C1
:10024000809105018F5F80930501109202018F91CB
:100250000F900FBE0F901F9018951F920F920FB620
:100260000F9211248F93809106018F5F8093060176
:10027000809106018A3038F08091AD018F5F8093C4
:10028000AD01109206018F910F900FBE0F901F903D
:100290001895E0E9F0E0808180688083E1E9F0E092
:1002A00080818860808380818160808381E0809309
:1002B000990084EF8093980010929500109294001A
:1002C000E1E7F0E080818360808308951F920F92C0
:1002D0000FB60F9211240BB60F922F938F939F930B
:1002E000EF93FF9310929500109294008091BF01BC
:1002F0009091C00101969093C0018093BF018091BD
:10030000BF019091C001889720F1E7EAF1E0808178
:100310009181019691838083883E9340B0F08281E1
:10032000938101969383828311821082CC9768F027
:100330008481958101969583848313821282CC9760
:1003400020F01092AC011092AB011092C0011092FB
:10035000BF01FF91EF919F918F912F910F900BBE55
:100360000F900FBE0F901F90189580910101809300
:10037000C500809100018093C40088E18093C10092
:100380008EE08093C20008955058BB27AA270ED054
:100390001CC10DD130F012D120F031F49F3F11F487
:1003A0001EF402C10EF4E095E7FBF8C0E92F1ED160
:1003B00080F3BA17620773078407950718F071F482
:1003C0009EF536C10EF4E0950B2EBA2FA02D0B0131
:1003D000B90190010C01CA01A0011124FF27591B8A
:1003E00099F0593F50F4503E68F11A16F040A22F90
:1003F000232F342F4427585FF3CF46953795279501
:10040000A795F0405395C9F77EF41F16BA0B620BFF
:10041000730B840BBAF09150A1F0FF0FBB1F661F46
:10042000771F881FC2F70EC0BA0F621F731F841F89
:1004300048F4879577956795B795F7959E3F08F0AF
:10044000B3CF9395880F08F09927EE0F979587956E
:1004500008950CD0BAC0B2D040F0A9D030F021F449
:100460005F3F19F09BC05111E4C09EC0BFD098F30C
:100470009923C9F35523B1F3951B550BBB27AA2725
:1004800062177307840738F09F5F5F4F220F331F97
:10049000441FAA1FA9F333D00E2E3AF0E0E830D063
:1004A00091505040E695001CCAF729D0FE2F27D066
:1004B000660F771F881FBB1F261737074807AB0734
:1004C000B0E809F0BB0B802DBF01FF2793585F4FA9
:1004D0002AF09E3F510568F061C0ABC05F3FECF36E
:1004E000983EDCF3869577956795B795F7959F5F6E
:1004F000C9F7880F911D9695879597F90895E1E0C2
:10050000660F771F881FBB1F621773078407BA0720
:1005100020F0621B730B840BBA0BEE1F88F7E0957B
:100520000895E89409C097FB3EF4909580957095E6
:1005300061957F4F8F4F9F4F9923A9F0F92F96E92F
:10054000BB279395F695879577956795B795F111A4
:10055000F8CFFAF4BB0F11F460FF1BC06F5F7F4F41
:100560008F4F9F4F16C0882311F096E911C0772353
:1005700021F09EE8872F762F05C0662371F096E85C
:10058000862F70E060E02AF09A95660F771F881F2B
:10059000DAF7880F9695879597F9089597F99F67E9
:1005A00080E870E060E008959FEF80EC08950024FB
:1005B0000A941616170618060906089500240A94C8
:1005C00012161306140605060895092E0394000C4E
:1005D00011F4882352F0BB0F40F4BF2B11F460FFDD
:1005E00004C06F5F7F4F8F4F9F4F089557FD905806
:1005F000440F551F59F05F3F71F04795880F97FBE7
:10060000991F61F09F3F79F08795089512161306A0
:100610001406551FF2CF4695F1DF08C016161706CF
:100620001806991FF1CF8695710561050894089504
:10063000E894BB2766277727CB0197F908950BD05D
:10064000C4CFB5DF28F0BADF18F0952309F0A6CFA4
:10065000ABCF1124EECFCADFA0F3959FD1F3950F56
:1006600050E0551F629FF001729FBB27F00DB11D36
:10067000639FAA27F00DB11DAA1F649F6627B00DC6
:10068000A11D661F829F2227B00DA11D621F739FAF
:10069000B00DA11D621F839FA00D611D221F749FBD
:1006A0003327A00D611D231F849F600D211D822F04
:1006B000762F6A2F11249F5750408AF0E1F088234B
:1006C0004AF0EE0FFF1FBB1F661F771F881F915058
:1006D0005040A9F79E3F510570F060CFAACF5F3F11
:1006E000ECF3983EDCF3869577956795B795F7958B
:1006F000E7959F5FC1F7FE2B880F911D9695879513
:1007000097F90895FA01EE0FFF1F30962105310584
:1007100099F16115710561F48038BFE39B0749F1D8
:1007200068949038810561F08038BFEF9B0741F0F5
:10073000992342F5FF3FE1053105210511F1E894C8
:100740000894E795D901AA2329F4AB2FBE2FF85FAF
:10075000D0F310C0FF5F70F4A695E0F7F73950F0C2
:1007600019F0FF3A38F49F779F930CD00F9007FC55
:10077000905808953EF018CF60E070E080E89FE365
:1007800008954FE79F775F934F933F932F939ED0AA
:100790002F913F914F915F9152DF05C019F40EF0F8
:1007A000FDCE46CF01CF2ADFC8F39638C0F707F851
:1007B0000F92E8942BE33AEA48EB5FE74EDF0F92A3
:1007C0000F920F924DB75EB70F92C0D0ECE8F0E0F9
:1007D00016D04F915F91EF91FF91E595EE1FFF1FAE
:1007E00049F0FE57E0684427EE0F441FFA95E1F701
:1007F0004195550B32D00F9007FE26C00895DF9328
:10080000CF931F930F93FF92EF92DF927B018C01A6
:10081000689405C0DA2EEF011EDFFE01E894A59171
:100820002591359145915591AEF3EF01BFDDFE0164
:100830009701A801DA9479F7DF90EF90FF900F917C
:100840001F91CF91DF9108959B01AC0160E070E0B2
:1008500080E89FE3FECDA2CEACC0D0DEE8F39923C2
:10086000D9F3940F511DBBF39150504094F059F0BF
:10087000882332F0660F771F881F91505040C1F7D0
:100880009E3F510544F7880F911D9695879597F9DE
:1008900008955F3FACF0983E9CF0BB278695779516
:1008A0006795B79508F4B1609395C1F7BB0F58F7FA
:1008B00011F460FFE8CF6F5F7F4F8F4F9F4FE3CF03
:1008C000B8CE0EF076C070CE689468CE97DEC8F3CE
:1008D0009923D1F3C6F3DF93CF931F930F93FF9226
:1008E000C92FDD2788232AF02197660F771F881FDD
:1008F000DAF720E030E040E85FEB9FE3883920F052
:10090000803E30F021968F7740DDE4EBF0E003C0CD
:100910003CDDE1EEF0E073DF8B01BE01EC01FB2E6C
:100920006F5771097595771F880B990BFCDD28E1CE
:1009300032E741E35FE38FDEAF2D9801AE01FF9018
:100940000F911F91CF91DF9131DD3FCEFA01DC0194
:10095000AA0FBB1F9B01AC01BF5728F422273327E6
:10096000442750781FC0B75188F4AB2F0024469518
:1009700037952795011CA395D2F3002069F0220F2B
:10098000331F441FB395DAF30DD0FECC61307105EF
:10099000A0E88A07B94630F49B01AC0166277727A7
:1009A00088279078309621F02083318342835383C7
:1009B00008959F3F31F0915020F487957795679582
:1009C000B795880F911D9695879597F90895F89496
:0209D000FFCF57
:0209D2008200A1
:00000001FF
